{
  "contractName": "MedicalRecord",
  "abi": [
    {
      "inputs": [
        {
          "internalType": "address",
          "name": "_patientAddress",
          "type": "address"
        },
        {
          "internalType": "string",
          "name": "_fullName",
          "type": "string"
        },
        {
          "internalType": "string",
          "name": "_dateOfBirth",
          "type": "string"
        },
        {
          "internalType": "string",
          "name": "_location",
          "type": "string"
        }
      ],
      "name": "addPatient",
      "outputs": [
        {
          "internalType": "string",
          "name": "",
          "type": "string"
        }
      ],
      "stateMutability": "nonpayable",
      "type": "function"
    },
    {
      "inputs": [
        {
          "internalType": "address",
          "name": "_patientAddress",
          "type": "address"
        },
        {
          "internalType": "string",
          "name": "_recordDesc",
          "type": "string"
        },
        {
          "internalType": "string",
          "name": "_recordEnteredBy",
          "type": "string"
        },
        {
          "internalType": "string",
          "name": "_recordTimestamp",
          "type": "string"
        }
      ],
      "name": "addRecord",
      "outputs": [
        {
          "internalType": "string",
          "name": "",
          "type": "string"
        },
        {
          "internalType": "string",
          "name": "",
          "type": "string"
        }
      ],
      "stateMutability": "nonpayable",
      "type": "function"
    },
    {
      "inputs": [
        {
          "internalType": "address",
          "name": "_patientAddress",
          "type": "address"
        }
      ],
      "name": "getRecord",
      "outputs": [
        {
          "internalType": "address",
          "name": "",
          "type": "address"
        },
        {
          "internalType": "string",
          "name": "",
          "type": "string"
        },
        {
          "internalType": "string",
          "name": "",
          "type": "string"
        },
        {
          "internalType": "string",
          "name": "",
          "type": "string"
        },
        {
          "internalType": "string",
          "name": "",
          "type": "string"
        },
        {
          "internalType": "string",
          "name": "",
          "type": "string"
        }
      ],
      "stateMutability": "view",
      "type": "function",
      "constant": true
    }
  ],
  "bytecode": "0x608060405234801561001057600080fd5b50610f04806100206000396000f3fe608060405234801561001057600080fd5b50600436106100415760003560e01c80632c76361f14610046578063617fba0414610076578063e8fb4696146100ab575b600080fd5b610060600480360381019061005b9190610b55565b6100dc565b60405161006d9190610ccc565b60405180910390f35b610090600480360381019061008b9190610b2c565b6101ff565b6040516100a296959493929190610c48565b60405180910390f35b6100c560048036038101906100c09190610b55565b61071d565b6040516100d3929190610cee565b60405180910390f35b606060405180608001604052808673ffffffffffffffffffffffffffffffffffffffff168152602001858152602001848152602001838152506000808773ffffffffffffffffffffffffffffffffffffffff1673ffffffffffffffffffffffffffffffffffffffff16815260200190815260200160002060008201518160000160006101000a81548173ffffffffffffffffffffffffffffffffffffffff021916908373ffffffffffffffffffffffffffffffffffffffff16021790555060208201518160010190805190602001906101b6929190610a0c565b5060408201518160020190805190602001906101d3929190610a0c565b5060608201518160030190805190602001906101f0929190610a0c565b50905050839050949350505050565b600060608060608060608673ffffffffffffffffffffffffffffffffffffffff166000808973ffffffffffffffffffffffffffffffffffffffff1673ffffffffffffffffffffffffffffffffffffffff16815260200190815260200160002060000160009054906101000a900473ffffffffffffffffffffffffffffffffffffffff1673ffffffffffffffffffffffffffffffffffffffff16146102a257600080fd5b600160008873ffffffffffffffffffffffffffffffffffffffff1673ffffffffffffffffffffffffffffffffffffffff16815260200190815260200160002060000160009054906101000a900473ffffffffffffffffffffffffffffffffffffffff16600160008973ffffffffffffffffffffffffffffffffffffffff1673ffffffffffffffffffffffffffffffffffffffff168152602001908152602001600020600101600160008a73ffffffffffffffffffffffffffffffffffffffff1673ffffffffffffffffffffffffffffffffffffffff1681526020019081526020016000206002016000808b73ffffffffffffffffffffffffffffffffffffffff1673ffffffffffffffffffffffffffffffffffffffff1681526020019081526020016000206001016000808c73ffffffffffffffffffffffffffffffffffffffff1673ffffffffffffffffffffffffffffffffffffffff1681526020019081526020016000206002016000808d73ffffffffffffffffffffffffffffffffffffffff1673ffffffffffffffffffffffffffffffffffffffff16815260200190815260200160002060030184805461045890610e16565b80601f016020809104026020016040519081016040528092919081815260200182805461048490610e16565b80156104d15780601f106104a6576101008083540402835291602001916104d1565b820191906000526020600020905b8154815290600101906020018083116104b457829003601f168201915b505050505094508380546104e490610e16565b80601f016020809104026020016040519081016040528092919081815260200182805461051090610e16565b801561055d5780601f106105325761010080835404028352916020019161055d565b820191906000526020600020905b81548152906001019060200180831161054057829003601f168201915b5050505050935082805461057090610e16565b80601f016020809104026020016040519081016040528092919081815260200182805461059c90610e16565b80156105e95780601f106105be576101008083540402835291602001916105e9565b820191906000526020600020905b8154815290600101906020018083116105cc57829003601f168201915b505050505092508180546105fc90610e16565b80601f016020809104026020016040519081016040528092919081815260200182805461062890610e16565b80156106755780601f1061064a57610100808354040283529160200191610675565b820191906000526020600020905b81548152906001019060200180831161065857829003601f168201915b5050505050915080805461068890610e16565b80601f01602080910402602001604051908101604052809291908181526020018280546106b490610e16565b80156107015780601f106106d657610100808354040283529160200191610701565b820191906000526020600020905b8154815290600101906020018083116106e457829003601f168201915b5050505050905095509550955095509550955091939550919395565b6060808573ffffffffffffffffffffffffffffffffffffffff166000808873ffffffffffffffffffffffffffffffffffffffff1673ffffffffffffffffffffffffffffffffffffffff16815260200190815260200160002060000160009054906101000a900473ffffffffffffffffffffffffffffffffffffffff1673ffffffffffffffffffffffffffffffffffffffff16146107b957600080fd5b60405180608001604052808773ffffffffffffffffffffffffffffffffffffffff16815260200186815260200185815260200184815250600160008060008a73ffffffffffffffffffffffffffffffffffffffff1673ffffffffffffffffffffffffffffffffffffffff16815260200190815260200160002060000160009054906101000a900473ffffffffffffffffffffffffffffffffffffffff1673ffffffffffffffffffffffffffffffffffffffff1673ffffffffffffffffffffffffffffffffffffffff16815260200190815260200160002060008201518160000160006101000a81548173ffffffffffffffffffffffffffffffffffffffff021916908373ffffffffffffffffffffffffffffffffffffffff16021790555060208201518160010190805190602001906108f3929190610a0c565b506040820151816002019080519060200190610910929190610a0c565b50606082015181600301908051906020019061092d929190610a0c565b50905050826000808873ffffffffffffffffffffffffffffffffffffffff1673ffffffffffffffffffffffffffffffffffffffff16815260200190815260200160002060010180805461097f90610e16565b80601f01602080910402602001604051908101604052809291908181526020018280546109ab90610e16565b80156109f85780601f106109cd576101008083540402835291602001916109f8565b820191906000526020600020905b8154815290600101906020018083116109db57829003601f168201915b505050505090509150915094509492505050565b828054610a1890610e16565b90600052602060002090601f016020900481019282610a3a5760008555610a81565b82601f10610a5357805160ff1916838001178555610a81565b82800160010185558215610a81579182015b82811115610a80578251825591602001919060010190610a65565b5b509050610a8e9190610a92565b5090565b5b80821115610aab576000816000905550600101610a93565b5090565b6000610ac2610abd84610d56565b610d25565b905082815260208101848484011115610ada57600080fd5b610ae5848285610dd4565b509392505050565b600081359050610afc81610eb7565b92915050565b600082601f830112610b1357600080fd5b8135610b23848260208601610aaf565b91505092915050565b600060208284031215610b3e57600080fd5b6000610b4c84828501610aed565b91505092915050565b60008060008060808587031215610b6b57600080fd5b6000610b7987828801610aed565b945050602085013567ffffffffffffffff811115610b9657600080fd5b610ba287828801610b02565b935050604085013567ffffffffffffffff811115610bbf57600080fd5b610bcb87828801610b02565b925050606085013567ffffffffffffffff811115610be857600080fd5b610bf487828801610b02565b91505092959194509250565b610c0981610da2565b82525050565b6000610c1a82610d86565b610c248185610d91565b9350610c34818560208601610de3565b610c3d81610ea6565b840191505092915050565b600060c082019050610c5d6000830189610c00565b8181036020830152610c6f8188610c0f565b90508181036040830152610c838187610c0f565b90508181036060830152610c978186610c0f565b90508181036080830152610cab8185610c0f565b905081810360a0830152610cbf8184610c0f565b9050979650505050505050565b60006020820190508181036000830152610ce68184610c0f565b905092915050565b60006040820190508181036000830152610d088185610c0f565b90508181036020830152610d1c8184610c0f565b90509392505050565b6000604051905081810181811067ffffffffffffffff82111715610d4c57610d4b610e77565b5b8060405250919050565b600067ffffffffffffffff821115610d7157610d70610e77565b5b601f19601f8301169050602081019050919050565b600081519050919050565b600082825260208201905092915050565b6000610dad82610db4565b9050919050565b600073ffffffffffffffffffffffffffffffffffffffff82169050919050565b82818337600083830152505050565b60005b83811015610e01578082015181840152602081019050610de6565b83811115610e10576000848401525b50505050565b60006002820490506001821680610e2e57607f821691505b60208210811415610e4257610e41610e48565b5b50919050565b7f4e487b7100000000000000000000000000000000000000000000000000000000600052602260045260246000fd5b7f4e487b7100000000000000000000000000000000000000000000000000000000600052604160045260246000fd5b6000601f19601f8301169050919050565b610ec081610da2565b8114610ecb57600080fd5b5056fea264697066735822122001a0ff520d72c23f086b72a2adc98c7568a64d4563d39a7daab92f8f72339db664736f6c63430008000033",
  "immutableReferences": {},
  "source": "// SPDX-License-Identifier: MIT\r\npragma solidity ^0.8.0;\r\n\r\ncontract MedicalRecord {\r\n    \r\n    struct Patient {\r\n        address patientAddress;\r\n        string fullName;\r\n        string dateOfBirth;\r\n        string location;\r\n    }\r\n    mapping(address => Patient) patients;\r\n\r\n    struct Record {\r\n        address patientAddress;\r\n        string recordDesc;\r\n        string recordEnteredBy;\r\n        string recordTimestamp;\r\n    }\r\n    mapping(address => Record) records;\r\n\r\n    // Add a new patient\r\n    function addPatient(address _patientAddress, string memory _fullName, string memory _dateOfBirth, string memory _location) public returns (string memory){\r\n        //require(msg.sender == _patientAddress);\r\n        patients[_patientAddress] = Patient(_patientAddress, _fullName, _dateOfBirth, _location);\r\n        return _fullName;\r\n    }\r\n\r\n    function addRecord(address _patientAddress, string memory _recordDesc, string memory _recordEnteredBy, string memory _recordTimestamp) public returns  (string memory,string memory) {\r\n        \r\n        require(patients[_patientAddress].patientAddress == _patientAddress);\r\n      \r\n        records[ patients[_patientAddress].patientAddress] = Record(_patientAddress, _recordDesc,_recordEnteredBy, _recordTimestamp);\r\n        return (_recordTimestamp,patients[_patientAddress].fullName);\r\n    }\r\n\r\n    function getRecord(address _patientAddress) public view returns (address, string memory, string memory, string memory, string memory, string memory) {\r\n\r\n        require(patients[_patientAddress].patientAddress == _patientAddress);\r\n       \r\n                return (records[_patientAddress].patientAddress, records[_patientAddress].recordDesc, records[_patientAddress].recordEnteredBy, patients[_patientAddress].fullName,patients[_patientAddress].dateOfBirth,patients[_patientAddress].location);\r\n            \r\n    \r\n    }\r\n}",
  "sourcePath": "C:\\Users\\gnith\\Desktop\\major project\\testturffle\\contracts\\MedicalRecord.sol",
  "compiler": {
    "name": "solc",
    "version": "0.8.0+commit.c7dfd78e.Emscripten.clang"
  },
  "schemaVersion": "3.4.11",
  "updatedAt": "2023-04-15T07:10:51.820Z",
  "networkType": "ethereum",
  "devdoc": {
    "kind": "dev",
    "methods": {},
    "version": 1
  },
  "userdoc": {
    "kind": "user",
    "methods": {},
    "version": 1
  }
}