{
  "contractName": "MedicalRecord",
  "abi": [
    {
      "inputs": [
        {
          "internalType": "address",
          "name": "_patientAddress",
          "type": "address"
        },
        {
          "internalType": "string",
          "name": "_fullName",
          "type": "string"
        },
        {
          "internalType": "string",
          "name": "_dateOfBirth",
          "type": "string"
        },
        {
          "internalType": "string",
          "name": "_insuranceProvider",
          "type": "string"
        }
      ],
      "name": "addPatient",
      "outputs": [
        {
          "internalType": "string",
          "name": "",
          "type": "string"
        }
      ],
      "stateMutability": "nonpayable",
      "type": "function"
    },
    {
      "inputs": [
        {
          "internalType": "address",
          "name": "_patientAddress",
          "type": "address"
        },
        {
          "internalType": "address",
          "name": "_recordAddress",
          "type": "address"
        },
        {
          "internalType": "string",
          "name": "_recordHash",
          "type": "string"
        },
        {
          "internalType": "string",
          "name": "_recordType",
          "type": "string"
        },
        {
          "internalType": "string",
          "name": "_recordTimestamp",
          "type": "string"
        }
      ],
      "name": "addRecord",
      "outputs": [
        {
          "internalType": "string",
          "name": "",
          "type": "string"
        },
        {
          "internalType": "string",
          "name": "",
          "type": "string"
        }
      ],
      "stateMutability": "nonpayable",
      "type": "function"
    },
    {
      "inputs": [
        {
          "internalType": "address",
          "name": "_patientAddress",
          "type": "address"
        }
      ],
      "name": "getRecord",
      "outputs": [
        {
          "internalType": "address",
          "name": "",
          "type": "address"
        },
        {
          "internalType": "address",
          "name": "",
          "type": "address"
        },
        {
          "internalType": "string",
          "name": "",
          "type": "string"
        },
        {
          "internalType": "string",
          "name": "",
          "type": "string"
        },
        {
          "internalType": "string",
          "name": "",
          "type": "string"
        }
      ],
      "stateMutability": "view",
      "type": "function",
      "constant": true
    }
  ],
  "bytecode": "0x608060405234801561001057600080fd5b50610ecf806100206000396000f3fe608060405234801561001057600080fd5b50600436106100415760003560e01c8063095219e9146100465780632c76361f14610077578063617fba04146100a7575b600080fd5b610060600480360381019061005b9190610a7d565b6100db565b60405161006e929190610cb9565b60405180910390f35b610091600480360381019061008c9190610b3c565b61042e565b60405161009e9190610c97565b60405180910390f35b6100c160048036038101906100bc9190610a54565b610551565b6040516100d2959493929190610c2f565b60405180910390f35b6060808673ffffffffffffffffffffffffffffffffffffffff166000808973ffffffffffffffffffffffffffffffffffffffff1673ffffffffffffffffffffffffffffffffffffffff16815260200190815260200160002060000160009054906101000a900473ffffffffffffffffffffffffffffffffffffffff1673ffffffffffffffffffffffffffffffffffffffff161461017757600080fd5b6040518060a001604052808773ffffffffffffffffffffffffffffffffffffffff1681526020018873ffffffffffffffffffffffffffffffffffffffff16815260200186815260200185815260200184815250600160008060008b73ffffffffffffffffffffffffffffffffffffffff1673ffffffffffffffffffffffffffffffffffffffff16815260200190815260200160002060000160009054906101000a900473ffffffffffffffffffffffffffffffffffffffff1673ffffffffffffffffffffffffffffffffffffffff1673ffffffffffffffffffffffffffffffffffffffff16815260200190815260200160002060008201518160000160006101000a81548173ffffffffffffffffffffffffffffffffffffffff021916908373ffffffffffffffffffffffffffffffffffffffff16021790555060208201518160010160006101000a81548173ffffffffffffffffffffffffffffffffffffffff021916908373ffffffffffffffffffffffffffffffffffffffff1602179055506040820151816002019080519060200190610314929190610934565b506060820151816003019080519060200190610331929190610934565b50608082015181600401908051906020019061034e929190610934565b50905050826000808973ffffffffffffffffffffffffffffffffffffffff1673ffffffffffffffffffffffffffffffffffffffff1681526020019081526020016000206001018080546103a090610de1565b80601f01602080910402602001604051908101604052809291908181526020018280546103cc90610de1565b80156104195780601f106103ee57610100808354040283529160200191610419565b820191906000526020600020905b8154815290600101906020018083116103fc57829003601f168201915b50505050509050915091509550959350505050565b606060405180608001604052808673ffffffffffffffffffffffffffffffffffffffff168152602001858152602001848152602001838152506000808773ffffffffffffffffffffffffffffffffffffffff1673ffffffffffffffffffffffffffffffffffffffff16815260200190815260200160002060008201518160000160006101000a81548173ffffffffffffffffffffffffffffffffffffffff021916908373ffffffffffffffffffffffffffffffffffffffff1602179055506020820151816001019080519060200190610508929190610934565b506040820151816002019080519060200190610525929190610934565b506060820151816003019080519060200190610542929190610934565b50905050839050949350505050565b60008060608060608573ffffffffffffffffffffffffffffffffffffffff166000808873ffffffffffffffffffffffffffffffffffffffff1673ffffffffffffffffffffffffffffffffffffffff16815260200190815260200160002060000160009054906101000a900473ffffffffffffffffffffffffffffffffffffffff1673ffffffffffffffffffffffffffffffffffffffff16146105f257600080fd5b600160008773ffffffffffffffffffffffffffffffffffffffff1673ffffffffffffffffffffffffffffffffffffffff16815260200190815260200160002060000160009054906101000a900473ffffffffffffffffffffffffffffffffffffffff16600160008873ffffffffffffffffffffffffffffffffffffffff1673ffffffffffffffffffffffffffffffffffffffff16815260200190815260200160002060010160009054906101000a900473ffffffffffffffffffffffffffffffffffffffff16600160008973ffffffffffffffffffffffffffffffffffffffff1673ffffffffffffffffffffffffffffffffffffffff168152602001908152602001600020600201600160008a73ffffffffffffffffffffffffffffffffffffffff1673ffffffffffffffffffffffffffffffffffffffff1681526020019081526020016000206003016000808b73ffffffffffffffffffffffffffffffffffffffff1673ffffffffffffffffffffffffffffffffffffffff16815260200190815260200160002060010182805461078990610de1565b80601f01602080910402602001604051908101604052809291908181526020018280546107b590610de1565b80156108025780601f106107d757610100808354040283529160200191610802565b820191906000526020600020905b8154815290600101906020018083116107e557829003601f168201915b5050505050925081805461081590610de1565b80601f016020809104026020016040519081016040528092919081815260200182805461084190610de1565b801561088e5780601f106108635761010080835404028352916020019161088e565b820191906000526020600020905b81548152906001019060200180831161087157829003601f168201915b505050505091508080546108a190610de1565b80601f01602080910402602001604051908101604052809291908181526020018280546108cd90610de1565b801561091a5780601f106108ef5761010080835404028352916020019161091a565b820191906000526020600020905b8154815290600101906020018083116108fd57829003601f168201915b505050505090509450945094509450945091939590929450565b82805461094090610de1565b90600052602060002090601f01602090048101928261096257600085556109a9565b82601f1061097b57805160ff19168380011785556109a9565b828001600101855582156109a9579182015b828111156109a857825182559160200191906001019061098d565b5b5090506109b691906109ba565b5090565b5b808211156109d35760008160009055506001016109bb565b5090565b60006109ea6109e584610d21565b610cf0565b905082815260208101848484011115610a0257600080fd5b610a0d848285610d9f565b509392505050565b600081359050610a2481610e82565b92915050565b600082601f830112610a3b57600080fd5b8135610a4b8482602086016109d7565b91505092915050565b600060208284031215610a6657600080fd5b6000610a7484828501610a15565b91505092915050565b600080600080600060a08688031215610a9557600080fd5b6000610aa388828901610a15565b9550506020610ab488828901610a15565b945050604086013567ffffffffffffffff811115610ad157600080fd5b610add88828901610a2a565b935050606086013567ffffffffffffffff811115610afa57600080fd5b610b0688828901610a2a565b925050608086013567ffffffffffffffff811115610b2357600080fd5b610b2f88828901610a2a565b9150509295509295909350565b60008060008060808587031215610b5257600080fd5b6000610b6087828801610a15565b945050602085013567ffffffffffffffff811115610b7d57600080fd5b610b8987828801610a2a565b935050604085013567ffffffffffffffff811115610ba657600080fd5b610bb287828801610a2a565b925050606085013567ffffffffffffffff811115610bcf57600080fd5b610bdb87828801610a2a565b91505092959194509250565b610bf081610d6d565b82525050565b6000610c0182610d51565b610c0b8185610d5c565b9350610c1b818560208601610dae565b610c2481610e71565b840191505092915050565b600060a082019050610c446000830188610be7565b610c516020830187610be7565b8181036040830152610c638186610bf6565b90508181036060830152610c778185610bf6565b90508181036080830152610c8b8184610bf6565b90509695505050505050565b60006020820190508181036000830152610cb18184610bf6565b905092915050565b60006040820190508181036000830152610cd38185610bf6565b90508181036020830152610ce78184610bf6565b90509392505050565b6000604051905081810181811067ffffffffffffffff82111715610d1757610d16610e42565b5b8060405250919050565b600067ffffffffffffffff821115610d3c57610d3b610e42565b5b601f19601f8301169050602081019050919050565b600081519050919050565b600082825260208201905092915050565b6000610d7882610d7f565b9050919050565b600073ffffffffffffffffffffffffffffffffffffffff82169050919050565b82818337600083830152505050565b60005b83811015610dcc578082015181840152602081019050610db1565b83811115610ddb576000848401525b50505050565b60006002820490506001821680610df957607f821691505b60208210811415610e0d57610e0c610e13565b5b50919050565b7f4e487b7100000000000000000000000000000000000000000000000000000000600052602260045260246000fd5b7f4e487b7100000000000000000000000000000000000000000000000000000000600052604160045260246000fd5b6000601f19601f8301169050919050565b610e8b81610d6d565b8114610e9657600080fd5b5056fea26469706673582212200f5a48401eea2840800db0650a4a443f3d94f4360566cbbd135108d485ed8ca064736f6c63430008000033",
  "immutableReferences": {},
  "source": "// SPDX-License-Identifier: MIT\r\npragma solidity ^0.8.0;\r\n\r\ncontract MedicalRecord {\r\n    \r\n    struct Patient {\r\n        address patientAddress;\r\n        string fullName;\r\n        string dateOfBirth;\r\n        string insuranceProvider;\r\n    }\r\n    mapping(address => Patient) patients;\r\n\r\n    struct Record {\r\n        address recordAddress;\r\n        address patientAddress;\r\n        string recordHash;\r\n        string recordType;\r\n        string recordTimestamp;\r\n    }\r\n    mapping(address => Record) records;\r\n\r\n    // Add a new patient\r\n    function addPatient(address _patientAddress, string memory _fullName, string memory _dateOfBirth, string memory _insuranceProvider) public returns (string memory){\r\n        //require(msg.sender == _patientAddress);\r\n        patients[_patientAddress] = Patient(_patientAddress, _fullName, _dateOfBirth, _insuranceProvider);\r\n        return _fullName;\r\n    }\r\n\r\n    function addRecord(address _patientAddress,address _recordAddress, string memory _recordHash, string memory _recordType, string memory _recordTimestamp) public returns  (string memory,string memory) {\r\n        \r\n        require(patients[_patientAddress].patientAddress == _patientAddress);\r\n      \r\n        records[ patients[_patientAddress].patientAddress] = Record(_recordAddress, _patientAddress, _recordHash, _recordType, _recordTimestamp);\r\n        return (_recordTimestamp,patients[_patientAddress].fullName);\r\n    }\r\n\r\n    function getRecord(address _patientAddress) public view returns (address, address, string memory, string memory, string memory) {\r\n\r\n        require(patients[_patientAddress].patientAddress == _patientAddress);\r\n       \r\n                return (records[_patientAddress].recordAddress, records[_patientAddress].patientAddress, records[_patientAddress].recordHash, records[_patientAddress].recordType, patients[_patientAddress].fullName);\r\n            \r\n    \r\n    }\r\n}",
  "sourcePath": "C:\\Users\\gnith\\Desktop\\major project\\testturffle\\contracts\\MedicalRecord.sol",
  "compiler": {
    "name": "solc",
    "version": "0.8.0+commit.c7dfd78e.Emscripten.clang"
  },
  "schemaVersion": "3.4.11",
  "updatedAt": "2023-02-03T17:16:17.242Z",
  "networkType": "ethereum",
  "devdoc": {
    "kind": "dev",
    "methods": {},
    "version": 1
  },
  "userdoc": {
    "kind": "user",
    "methods": {},
    "version": 1
  }
}