{
  "contractName": "MedicalRecord",
  "abi": [
    {
      "inputs": [
        {
          "internalType": "address",
          "name": "_patientAddress",
          "type": "address"
        },
        {
          "internalType": "string",
          "name": "_fullName",
          "type": "string"
        },
        {
          "internalType": "string",
          "name": "_dateOfBirth",
          "type": "string"
        },
        {
          "internalType": "string",
          "name": "_insuranceProvider",
          "type": "string"
        }
      ],
      "name": "addPatient",
      "outputs": [
        {
          "internalType": "string",
          "name": "",
          "type": "string"
        }
      ],
      "stateMutability": "nonpayable",
      "type": "function"
    },
    {
      "inputs": [
        {
          "internalType": "address",
          "name": "_patientAddress",
          "type": "address"
        },
        {
          "internalType": "string",
          "name": "_recordHash",
          "type": "string"
        },
        {
          "internalType": "string",
          "name": "_recordType",
          "type": "string"
        },
        {
          "internalType": "string",
          "name": "_recordTimestamp",
          "type": "string"
        }
      ],
      "name": "addRecord",
      "outputs": [
        {
          "internalType": "string",
          "name": "",
          "type": "string"
        },
        {
          "internalType": "string",
          "name": "",
          "type": "string"
        }
      ],
      "stateMutability": "nonpayable",
      "type": "function"
    },
    {
      "inputs": [
        {
          "internalType": "address",
          "name": "_patientAddress",
          "type": "address"
        }
      ],
      "name": "getRecord",
      "outputs": [
        {
          "internalType": "address",
          "name": "",
          "type": "address"
        },
        {
          "internalType": "address",
          "name": "",
          "type": "address"
        },
        {
          "internalType": "string",
          "name": "",
          "type": "string"
        },
        {
          "internalType": "string",
          "name": "",
          "type": "string"
        },
        {
          "internalType": "string",
          "name": "",
          "type": "string"
        }
      ],
      "stateMutability": "view",
      "type": "function",
      "constant": true
    }
  ],
  "bytecode": "0x608060405234801561001057600080fd5b50610e70806100206000396000f3fe608060405234801561001057600080fd5b50600436106100415760003560e01c80632c76361f14610046578063617fba0414610076578063e8fb4696146100aa575b600080fd5b610060600480360381019061005b9190610add565b6100db565b60405161006d9190610c38565b60405180910390f35b610090600480360381019061008b9190610ab4565b6101fe565b6040516100a1959493929190610bd0565b60405180910390f35b6100c460048036038101906100bf9190610add565b6105e1565b6040516100d2929190610c5a565b60405180910390f35b606060405180608001604052808673ffffffffffffffffffffffffffffffffffffffff168152602001858152602001848152602001838152506000808773ffffffffffffffffffffffffffffffffffffffff1673ffffffffffffffffffffffffffffffffffffffff16815260200190815260200160002060008201518160000160006101000a81548173ffffffffffffffffffffffffffffffffffffffff021916908373ffffffffffffffffffffffffffffffffffffffff16021790555060208201518160010190805190602001906101b5929190610994565b5060408201518160020190805190602001906101d2929190610994565b5060608201518160030190805190602001906101ef929190610994565b50905050839050949350505050565b60008060608060608573ffffffffffffffffffffffffffffffffffffffff166000808873ffffffffffffffffffffffffffffffffffffffff1673ffffffffffffffffffffffffffffffffffffffff16815260200190815260200160002060000160009054906101000a900473ffffffffffffffffffffffffffffffffffffffff1673ffffffffffffffffffffffffffffffffffffffff161461029f57600080fd5b600160008773ffffffffffffffffffffffffffffffffffffffff1673ffffffffffffffffffffffffffffffffffffffff16815260200190815260200160002060000160009054906101000a900473ffffffffffffffffffffffffffffffffffffffff16600160008873ffffffffffffffffffffffffffffffffffffffff1673ffffffffffffffffffffffffffffffffffffffff16815260200190815260200160002060010160009054906101000a900473ffffffffffffffffffffffffffffffffffffffff16600160008973ffffffffffffffffffffffffffffffffffffffff1673ffffffffffffffffffffffffffffffffffffffff168152602001908152602001600020600201600160008a73ffffffffffffffffffffffffffffffffffffffff1673ffffffffffffffffffffffffffffffffffffffff1681526020019081526020016000206003016000808b73ffffffffffffffffffffffffffffffffffffffff1673ffffffffffffffffffffffffffffffffffffffff16815260200190815260200160002060010182805461043690610d82565b80601f016020809104026020016040519081016040528092919081815260200182805461046290610d82565b80156104af5780601f10610484576101008083540402835291602001916104af565b820191906000526020600020905b81548152906001019060200180831161049257829003601f168201915b505050505092508180546104c290610d82565b80601f01602080910402602001604051908101604052809291908181526020018280546104ee90610d82565b801561053b5780601f106105105761010080835404028352916020019161053b565b820191906000526020600020905b81548152906001019060200180831161051e57829003601f168201915b5050505050915080805461054e90610d82565b80601f016020809104026020016040519081016040528092919081815260200182805461057a90610d82565b80156105c75780601f1061059c576101008083540402835291602001916105c7565b820191906000526020600020905b8154815290600101906020018083116105aa57829003601f168201915b505050505090509450945094509450945091939590929450565b6060808573ffffffffffffffffffffffffffffffffffffffff166000808873ffffffffffffffffffffffffffffffffffffffff1673ffffffffffffffffffffffffffffffffffffffff16815260200190815260200160002060000160009054906101000a900473ffffffffffffffffffffffffffffffffffffffff1673ffffffffffffffffffffffffffffffffffffffff161461067d57600080fd5b6040518060a001604052806000808973ffffffffffffffffffffffffffffffffffffffff1673ffffffffffffffffffffffffffffffffffffffff16815260200190815260200160002060000160009054906101000a900473ffffffffffffffffffffffffffffffffffffffff1673ffffffffffffffffffffffffffffffffffffffff1681526020018773ffffffffffffffffffffffffffffffffffffffff16815260200186815260200185815260200184815250600160008060008a73ffffffffffffffffffffffffffffffffffffffff1673ffffffffffffffffffffffffffffffffffffffff16815260200190815260200160002060000160009054906101000a900473ffffffffffffffffffffffffffffffffffffffff1673ffffffffffffffffffffffffffffffffffffffff1673ffffffffffffffffffffffffffffffffffffffff16815260200190815260200160002060008201518160000160006101000a81548173ffffffffffffffffffffffffffffffffffffffff021916908373ffffffffffffffffffffffffffffffffffffffff16021790555060208201518160010160006101000a81548173ffffffffffffffffffffffffffffffffffffffff021916908373ffffffffffffffffffffffffffffffffffffffff160217905550604082015181600201908051906020019061087b929190610994565b506060820151816003019080519060200190610898929190610994565b5060808201518160040190805190602001906108b5929190610994565b50905050826000808873ffffffffffffffffffffffffffffffffffffffff1673ffffffffffffffffffffffffffffffffffffffff16815260200190815260200160002060010180805461090790610d82565b80601f016020809104026020016040519081016040528092919081815260200182805461093390610d82565b80156109805780601f1061095557610100808354040283529160200191610980565b820191906000526020600020905b81548152906001019060200180831161096357829003601f168201915b505050505090509150915094509492505050565b8280546109a090610d82565b90600052602060002090601f0160209004810192826109c25760008555610a09565b82601f106109db57805160ff1916838001178555610a09565b82800160010185558215610a09579182015b82811115610a085782518255916020019190600101906109ed565b5b509050610a169190610a1a565b5090565b5b80821115610a33576000816000905550600101610a1b565b5090565b6000610a4a610a4584610cc2565b610c91565b905082815260208101848484011115610a6257600080fd5b610a6d848285610d40565b509392505050565b600081359050610a8481610e23565b92915050565b600082601f830112610a9b57600080fd5b8135610aab848260208601610a37565b91505092915050565b600060208284031215610ac657600080fd5b6000610ad484828501610a75565b91505092915050565b60008060008060808587031215610af357600080fd5b6000610b0187828801610a75565b945050602085013567ffffffffffffffff811115610b1e57600080fd5b610b2a87828801610a8a565b935050604085013567ffffffffffffffff811115610b4757600080fd5b610b5387828801610a8a565b925050606085013567ffffffffffffffff811115610b7057600080fd5b610b7c87828801610a8a565b91505092959194509250565b610b9181610d0e565b82525050565b6000610ba282610cf2565b610bac8185610cfd565b9350610bbc818560208601610d4f565b610bc581610e12565b840191505092915050565b600060a082019050610be56000830188610b88565b610bf26020830187610b88565b8181036040830152610c048186610b97565b90508181036060830152610c188185610b97565b90508181036080830152610c2c8184610b97565b90509695505050505050565b60006020820190508181036000830152610c528184610b97565b905092915050565b60006040820190508181036000830152610c748185610b97565b90508181036020830152610c888184610b97565b90509392505050565b6000604051905081810181811067ffffffffffffffff82111715610cb857610cb7610de3565b5b8060405250919050565b600067ffffffffffffffff821115610cdd57610cdc610de3565b5b601f19601f8301169050602081019050919050565b600081519050919050565b600082825260208201905092915050565b6000610d1982610d20565b9050919050565b600073ffffffffffffffffffffffffffffffffffffffff82169050919050565b82818337600083830152505050565b60005b83811015610d6d578082015181840152602081019050610d52565b83811115610d7c576000848401525b50505050565b60006002820490506001821680610d9a57607f821691505b60208210811415610dae57610dad610db4565b5b50919050565b7f4e487b7100000000000000000000000000000000000000000000000000000000600052602260045260246000fd5b7f4e487b7100000000000000000000000000000000000000000000000000000000600052604160045260246000fd5b6000601f19601f8301169050919050565b610e2c81610d0e565b8114610e3757600080fd5b5056fea2646970667358221220d70ea0935ce05b07bd814ef6f353f4c57a54e4c91ebd66fb0ca2b4226b362aba64736f6c63430008000033",
  "immutableReferences": {},
  "source": "// SPDX-License-Identifier: MIT\r\npragma solidity ^0.8.0;\r\n\r\ncontract MedicalRecord {\r\n    \r\n    struct Patient {\r\n        address patientAddress;\r\n        string fullName;\r\n        string dateOfBirth;\r\n        string insuranceProvider;\r\n    }\r\n    mapping(address => Patient) patients;\r\n\r\n    struct Record {\r\n        address recordAddress;\r\n        address patientAddress;\r\n        string recordHash;\r\n        string recordType;\r\n        string recordTimestamp;\r\n    }\r\n    mapping(address => Record) records;\r\n\r\n    // Add a new patient\r\n    function addPatient(address _patientAddress, string memory _fullName, string memory _dateOfBirth, string memory _insuranceProvider) public returns (string memory){\r\n        //require(msg.sender == _patientAddress);\r\n        patients[_patientAddress] = Patient(_patientAddress, _fullName, _dateOfBirth, _insuranceProvider);\r\n        return _fullName;\r\n    }\r\n\r\n    function addRecord(address _patientAddress, string memory _recordHash, string memory _recordType, string memory _recordTimestamp) public returns  (string memory,string memory) {\r\n        \r\n        require(patients[_patientAddress].patientAddress == _patientAddress);\r\n      \r\n        records[ patients[_patientAddress].patientAddress] = Record(patients[_patientAddress].patientAddress, _patientAddress, _recordHash, _recordType, _recordTimestamp);\r\n        return (_recordTimestamp,patients[_patientAddress].fullName);\r\n    }\r\n\r\n    function getRecord(address _patientAddress) public view returns (address, address, string memory, string memory, string memory) {\r\n\r\n        require(patients[_patientAddress].patientAddress == _patientAddress);\r\n       \r\n                return (records[_patientAddress].recordAddress, records[_patientAddress].patientAddress, records[_patientAddress].recordHash, records[_patientAddress].recordType, patients[_patientAddress].fullName);\r\n            \r\n    \r\n    }\r\n}",
  "sourcePath": "C:\\Users\\gnith\\Desktop\\major project\\testturffle\\contracts\\MedicalRecord.sol",
  "compiler": {
    "name": "solc",
    "version": "0.8.0+commit.c7dfd78e.Emscripten.clang"
  },
  "schemaVersion": "3.4.11",
  "updatedAt": "2023-02-01T12:48:06.630Z",
  "networkType": "ethereum",
  "devdoc": {
    "kind": "dev",
    "methods": {},
    "version": 1
  },
  "userdoc": {
    "kind": "user",
    "methods": {},
    "version": 1
  }
}